:10000000E83600201901000015010000150100006C
:1000100000000000000000000000000000000000E0
:1000200000000000000000000000000015010000BA
:100030000000000000000000150100001501000094
:100040001501000015010000150100007D0A0000E7
:100050001501000015010000150100001501000048
:100060001501000015010000150100001501000038
:100070001501000015010000150100001501000028
:100080001501000095110000150100001501000088
:1000900055080000000000000000000015010000ED
:1000A00015010000150100001501000015010000F8
:1000B0000000000010B5064C2378002B07D1054B3B
:1000C000002B02D0044800E000BF0123237010BDC4
:1000D0003404002000000000602A0000084B10B526
:1000E000002B03D00749084800E000BF0748036819
:1000F000002B00D110BD064B002BFBD09847F9E731
:100100000000000038040020602A0000602A00007F
:1001100000000000FEE70000F8B5234A234B9A4296
:1001200009D0224B204A03E01168196004330432DD
:100130001F498B42F8D31F4B02E000221A600433A0
:100140001D4A9342F9D31D4AFF211D4B8B439360F7
:10015000FD3990235B001B4AD1501B4AD3780325FD
:10016000AB4302242343D370D3780C27BB43082628
:100170003343D370154B987B302290432022104399
:100180009873997BB943314399739A7BAA4322436D
:100190009A730F4A516880230B4353600D4B984765
:1001A0000D4B9847FEE7C046602A00000000002083
:1001B0003404002034040020E416002000ED00E0A8
:1001C0000000000000700041005000410048004164
:1001D00000400041B9260000A50D0000014A024B75
:1001E0001A60704740420F0000000020044B1B7E45
:1001F000DB07FBD5C0B23030C0B2014B1885704769
:100200000008004270B505005C4B984229D85C4A52
:100210005C4BC318934226D95B4A5C4BC31893428C
:1002200023D95B4A5B4BC318934220D95A4A5B4B94
:10023000C31893421DD95A4A5A4BC31893421AD92C
:10024000594A5A4BC318934217D9594A0300643B81
:10025000934214D95A33592B13D909281FD8012492
:100260001DE00A241BE0092419E0082417E00724F4
:1002700015E0062413E0052411E004240FE0032414
:100280000DE002240BE04B4928004B4B98474B4BA9
:100290009847484928004A4B98470D00013C002CDC
:1002A0006BD00A2CFAD8A300464AD3589F46464939
:1002B0002800414B9847414B984743492800404B01
:1002C00098470D00EAE7414928003B4B98473B4BD4
:1002D00098473E4928003A4B98470D00DEE73C49D5
:1002E0002800354B9847354B984739492800344BFF
:1002F00098470D00D2E7374928002F4B98472F4BDE
:100300009847344928002E4B98470D00C6E73249DC
:100310002800294B9847294B98472F492800284BFC
:1003200098470D00BAE7FA2189002800224B984728
:10033000224B9847FA2189002800214B98470D004D
:10034000ACE7642128001C4B98471C4B984764215C
:1003500028001B4B98470D00A0E70A212800164BE8
:100360009847164B98470A212800154B98470D00CF
:1003700094E72800114B984790E770BDFFC99A3B5E
:10038000FFE8A435001F0AFA7F4A5D05806967FF10
:100390003F548900C0BDF0FF9FBB0D006079FEFF98
:1003A0008F5F0100F0D8FFFF2723000018FCFFFF3C
:1003B0008303000000CA9A3BD9130000ED0100003E
:1003C000E51400005828000000E1F505809698002B
:1003D00040420F00A086010010270000074B1B7E43
:1003E000DB07FBD50A22054B1A85044B1B7EDB0776
:1003F000FBD50D22014B1A857047C046000800420C
:1004000010B50022054B1B7EDB07FBD58A4204D0CA
:10041000845C024B1C850132F4E710BD00080042E9
:1004200030B5254B196A254A0A401A62196A80229A
:1004300091431962224B59680F22914359605968C0
:10044000204A1140C022D2000A435A6059688022D3
:1004500052020A435A605A883F20824304210A43C9
:100460005A805A88184C22405A8059888022D201DA
:10047000114359805988814305252943598059885A
:100480002140598059881143598059888143142546
:1004900029435980598821405980598811435980EE
:1004A0005988814316200143598059880C405C804B
:1004B00059880A435A8030BD00080040FFFCFFFF06
:1004C000000C0040FFE0FFFFFFF0FFFFF0B5284BFE
:1004D0004121522299540132995439255A5D0F24F1
:1004E000A243042002435A555E5D0F221640402766
:1004F0003E435E558F35595501355955B4269D5D9E
:10050000A54305439D55985D1040384398550020FC
:10051000442558550135585503355855013558551A
:10052000C0208000986030209860D130FF30986102
:10053000E138FF3898612A301954013019543527B1
:10054000D85DA04303252843D855D85D10403026F8
:100550003043D85546201954013019541438195CC9
:10056000A14329431954195C0A4032431A54F0BD7F
:1005700000440041114B1A8802218A431A801A88CC
:100580000A318A431A801A8880210A431A801A88FD
:100590000B491140802212010A431A80FA21C90036
:1005A000084A116000221A61DA7901210A43DA71DE
:1005B0001A8802210A431A807047C046001400407E
:1005C000FFF0FFFF18140040F0B5DE4657464E46D8
:1005D0004546E0B5364B186A042102000A431A6208
:1005E000186A102202431A62324B1A681C20824693
:1005F00082430A431A6018682F4A904602401A60E4
:100600001868C026B603020032431A6018682B4AE5
:100610009446104080225202104318605C680727FD
:100620002000B84358601C688025ED052000284351
:1006300018602348988158688024A4022043586099
:1006400058681043586018680400022004431C6076
:100650001C4B1C6850468443214319601968894625
:10066000414648460140196019680E431E601968EA
:1006700060460140114319605E683100B94359601A
:100680001E6835431D60104999815D688024A4026D
:100690002C435C6059680A435A6019680220084379
:1006A00018603CBC90469946A246AB46F0BDC04699
:1006B0000004004000080042FFFFFFEFFFFFFCFFC7
:1006C00015FBFFFF00100042098AFFFF194B5A88F3
:1006D0003F218A431B210A435A805A8816490A40FF
:1006E0005A8059888022D2010A435A80134A116ADB
:1006F00080231B010B431362114B1A880C218A4380
:100700001A801A8860210A431A801A880D491140FC
:10071000C022D2000A431A8000221A82FA229200D2
:100720001A83E12252005A831A8802210A431A804E
:100730007047C046000C0040FFF0FFFF000400407F
:10074000002C0042FFF8FFFF194B5A883F218A43D3
:100750001C210A435A805A8816490A405A805988EF
:100760008022D2010A435A80134A116A80235B0116
:100770000B431362114B1A880C218A431A801A8882
:1007800060210A431A801A880D491140C022D20004
:100790000A431A8000221A82FA2292001A83E12266
:1007A00052005A831A8802210A431A807047C046B1
:1007B000000C0040FFF0FFFF00040040003000424A
:1007C000FFF8FFFF124A116A80239B010B4313625B
:1007D000104B1A880C218A431A801A8854318A4394
:1007E00020210A431A801A880B491140C022D200E6
:1007F0000A431A805A7B01210A435A7300221A8243
:10080000064A1A831A8802210A431A807047C04692
:100810000004004000340042FFF8FFFF350C0000E8
:100820000122084B1A60084BCC2292005A61902298
:1008300052009A61F0235B00044A5383044A5383B5
:100840007047C0465004002000440041002C004284
:1008500000300042F0B5C64600B5694A937B0121DD
:100860000B439373674B5B68002B00D0C5E00024FB
:10087000002598E001330B2B15DC721E92B2624901
:100880008A42F7D85800C0186100091909010A1BEB
:1008900082185E498A189179D07900020843361887
:1008A000B6B20135E6E729003000594B984786B2C9
:1008B0003300653B9BB2574A934273D863001B19C0
:1008C0001B011A1B514B9B181A795F793F02174382
:1008D00028339A78DB781B02134398464E4B9F428D
:1008E00027D94E4B984524D8DB2E39D84C4BCC22F7
:1008F00092005A61213AFF3A9A614A4A4A4B5A8316
:10090000C83A4A4B5A83002300E00133484A9342D5
:10091000FBDD434BCC2292005A61313AFF3A9A6197
:10092000E13AFF3A9A61E1235B003F4A53833F4A31
:100930005383404B9F4235D93F4B984532D8C82E00
:1009400035D9374BCC2292005A61902252009A61DD
:10095000E1235B00344A5383344A538300230EE07F
:1009600096239B009E4206D8E1235B002E4A5383C8
:100970002E4A5383DDE7314B9847DAE70133304A9B
:100980009342FBDD264BCC2292005A61313AFF3A6A
:100990009A61E13AFF3A9A61E1235B00224A53836C
:1009A000224A53830134632C27DC002363E79F2E04
:1009B000F8D81B4BCC2292005A61213AFF3A9A6137
:1009C000184A194B5A83C83A184B5A83002300E03F
:1009D00001331C4A9342FBDD114BCC2292005A6139
:1009E000313AFF3A9A61E13AFF3A9A61E1235B00BA
:1009F0000D4A53830D4A5383D4E704BC9046F0BD9F
:100A000000340042500400200D2700006004002044
:100A1000ED140000A92600005F2200001C25000044
:100A2000004400418A020000002C004200300042D5
:100A3000FF7C0000AB0D0000740E000021080000D8
:100A40001F4E00002F7500000122084B1A60084B52
:100A5000CC2292005A61213AFF3A9A61E1235B006D
:100A6000044A5383044A53837047C046500400200D
:100A700000440041002C004200300042F0B583B039
:100A80003F4A137A01252B43137200250FE03D4C9A
:100A90001619B6B23C4FBE4200D819003B4CA446D2
:100AA000624492B23A4EB24200D818000135632D2A
:100AB00024DC6B005B191B015B1B364AD3181E79C3
:100AC0005A79120232431F002837BC78FE7836026A
:100AD000264337001E7E1233DB791B0233431E0090
:100AE000643EB6B22C4CA642E0D82C4EB242CED9CF
:100AF00082267600B742CAD80193C8E7284B1B6804
:100B0000012B05D9264B1B68012B1ED003B0F0BD6D
:100B10005E23FF33019A9A42F4D80023214A53837B
:100B2000214A538301221E4B5A60C82901D9C82883
:100B300005D8884206D3E5D91C4B9847E2E71C4B01
:100B40009847DFE71A4B9847DCE75E33FF33019A9B
:100B50009A42DBD9124A00211160164BCC2080004A
:100B600058613138FF389861E138FF389861E123E6
:100B70005B000C4843830C4843835160C6E7C04682
:100B800000140040F8DFFFFF14050000709AFFFF1B
:100B9000C409000060040020DB1E0000B7880000CC
:100BA00050040020002C004200300042490A00009E
:100BB000210800000044004148494A681E239A4326
:100BC0001C3B13434B60464A916908230B439361D6
:100BD000444A137801210B431370424B1B78DB0707
:100BE00003D5404B5B78DB09F7D13F4B196A802274
:100BF000914319623B4B3D4A9A603D4A5A60394BDA
:100C00005B78DB09FBD18622D201364B5A80354B0B
:100C10005B78DB09FBD1344A938C80218B4393842E
:100C2000314BDB68DB06FBD52F4BDA6A120C120462
:100C3000C02109011143D962DA6A92019209802127
:100C4000C9041143D962D96A2A4A1140802252024A
:100C50000A43DA62244BDB68DB06FBD5224A938C1D
:100C6000812189000B4393841F4BDB68DB06FBD596
:100C70001D4B996880220A439A60996840220A4372
:100C80009A60996810220A439A609A8C02210A435A
:100C90009A84154BDB68DB06FBD5134B9B681B0660
:100CA00003D4114B9B685B06F7D50F4B9B68DB06A3
:100CB000FBD500220B4B9A600A4B5B78DB09FBD11A
:100CC000084A0D4B5360516880231B030B4353604C
:100CD000044B5B78DB09FBD17047C0460040004104
:100CE00000040040000C00400008004003400000E9
:100CF00003060100FFFF00FC0007030030B5244B92
:100D0000412256215A5401315A543B24195D323A3A
:100D100091430D3A022001431955195D0F200840F7
:100D200020212025284318551A4B1C6A200008430F
:100D30001862194B58883F24A04317242043588039
:100D40005888164C204058805C888020C001204381
:100D50005880134B1C680120204318601C68200039
:100D6000904318601C681C20844308382043186096
:100D7000D868FF24A0430143D96019680A431A6068
:100D80005A8B30218A4310210A435A8330BDC04612
:100D90000044004100040040000C0040FFF0FFFF51
:100DA00000140042F0B5DE4657464646C0B588B04E
:100DB00004AB7D4A13CA13C3190013780B707B4B25
:100DC00098477B4B98477B4B98477B4B98477B4B8F
:100DD00098477B4B98477B4B98477B4B98477B4B7F
:100DE00098477B4B984700237A4A127ED207FBD55F
:100DF0000D2B05D004AAD15C764A11850133F3E7A7
:100E00000A22744B1A85734B1B7EDB07FBD50D2220
:100E1000704B1A85704B714A1A601021C5229200DE
:100E2000995080210906143A9950C02110329950E6
:100E300000240027002689E0002787E07B00DB19DB
:100E40001B01DB1B664AD3185D706FE02B02524614
:100E500013439BB27A00D2191201D21B60498A183F
:100E600093701B0AD37061E02B02524613439BB26E
:100E70007A00D2191201D21B59498A1813711B0A20
:100E8000537153E0A31F032101931800554B98475A
:100E9000029003210198544B9847002963D00129FF
:100EA0000ED0022942D1029B5A009C4662447B002C
:100EB000DB191B01DB1BD318494AD3181D7235E01F
:100EC0002B02039A13439BB2029A51009446614449
:100ED0007A00D2191201D21B8A1841498A189371DB
:100EE0001B0AD37122E0A84620E02B02424613439E
:100EF0009BB27A00D2191201D21B39498A182832C2
:100F000093701B0AD37011E0AB460FE02B025A46D8
:100F100013439BB27A00D2191201D21B30498A18AE
:100F2000283213711B0A537100E0AA46631E5A420D
:100F30005A412B002C3B59424B41134015D00134F0
:100F40001E00642F00D177E72E2C2AD0274B1B7E62
:100F50005B07FBD5254B1D8DEDB22D2CE6D8A300EC
:100F6000234AD3589F460395E0E72200531E9A4137
:100F700000232D21A1425B413240134001D00134B6
:100F8000DFE722002E3A51424A41D2B2002E04D06D
:100F9000002A02D01E000024D3E7542DD1D1012411
:100FA000CFE70137D2E7C04674290000DD01000019
:100FB000B90B000021040000C9050000CD040000A9
:100FC000CD06000049070000C507000075050000B8
:100FD000FD0C00000008004200E100E008001200E3
:100FE00060040020D9130000E51400000010004246
:100FF0008428000010B5134C636ADB0ADB02302240
:101000001A4362620F4B1B7EDB07FBD50D4B5B8BDC
:101010005B07F7D428230B4AD0540A4B1B7EDB070F
:10102000FBD5084B5B8B5B07F7D42823054AD154CB
:10103000044B1B7EDB07FBD5024B5B8B5B07F7D4B6
:1010400010BDC0460014004219494B6ADB0ADB029E
:1010500030221A434A62164B1B7EDB07FBD5144B2A
:101060005B8B5B07F7D42823114AD054104B1B7EAF
:10107000DB07FBD50E4B5B8B5B07F7D40C494B6A48
:10108000DB0ADB0231221A434A62094B1B7E9B07B3
:10109000FBD5074B59688022D2020A435A6059682F
:1010A000C02292020A435A602822985CC0B270475C
:1010B0000014004230B5274D6B6ADB0ADB02302496
:1010C0001C436C62234B1B7EDB07FBD5214B5B8BE8
:1010D0005B07F7D480235B420343DBB228201D4C1F
:1010E00023541C4B1B7EDB07FBD51A4B5B8B5B072A
:1010F000F7D4184C636ADB0ADB02312018436062C4
:1011000018E0144B1B7E9B07FBD528231148C35CBA
:1011100013700132012910D00E4B5C680E4820403C
:1011200058605C680D48044080208002204358606D
:101130000139C9B20029E4D130BD030044688020E0
:10114000C002204358605C68C02080022043586081
:10115000EEE7C04600140042FFFFFBFFFFFFFCFF6D
:1011600070B545782D02047825432DB2AD11C678AF
:1011700036028478344324B2A411467936020079C9
:10118000304300B28011AD000D80A40014808000B7
:10119000188070BDF0B5DE4657464E464546E0B570
:1011A00093B0754908AB0A0013CA13C313CA13C31B
:1011B00012781A70714B1A6806921B7902AA13757D
:1011C0006F4B1A6804921A7904AB1A716D4B1A6846
:1011D00002921B7902AA13716B4AD16A01230B4355
:1011E000D3620F20694CA04780212320684DA84777
:1011F000C0211F20A84757212020A8470C20A04726
:101200000D20A04710AA06212820624B98470FAB5B
:101210009A46322302AA94466344524636216144D8
:1012200010A85D4CA04702AB3620185E5B4B994678
:1012300098475B4F5B49B8475B4CA0475B4E5C4AA5
:101240005C4BB047009001915B4B9B461868A047F0
:101250005A4B9846009A019BC047594DA8475B4698
:10126000186053460020185EC8474E49B847A0474B
:101270004F4A504BB04700900191524B9A46186824
:10128000A047009A019BC047A8475346186002AB8D
:101290003220185EC8474349B847A047444A454BE7
:1012A000B04700900191484E3068A047009A019BDA
:1012B000C047A8473060192108A8444CA047444BB8
:1012C0009847052106A8A04702AB36229B5E002B5B
:1012D00036DB362302AA944663440020185E3D4B59
:1012E00098473B4B9847052104A8384B98470FABCC
:1012F00000229B5E002B2EDB0FAB0020185E354BCF
:101300009847334B9847052102A8304B9847322322
:1013100002AA9446634400229B5E002B23DB322307
:1013200002AA944663440020185E2A4B9847284B33
:10133000984713B03CBC90469946A246AB46F0BDD8
:101340005B42362202A98C466244138004212D2080
:101350001E4B9847BDE75B420FAA138004212D2046
:101360001A4B9847C8E75B4232226244138004213B
:101370002D20164B9847D2E784290000A0290000B1
:10138000A8290000B02900000028004249100000F0
:10139000F50F0000B51000006111000005190000F4
:1013A000C51600002E90203CC5240000C51F00007B
:1013B0009A9999999999C93FBC160020A5190000DE
:1013C000692500005C04002058040020010400008E
:1013D000DD03000005020000002243088B4274D3A5
:1013E00003098B425FD3030A8B4244D3030B8B4226
:1013F00028D3030C8B420DD3FF22090212BA030C2F
:101400008B4202D31212090265D0030B8B4219D30F
:1014100000E0090AC30B8B4201D3CB03C01A52412F
:10142000830B8B4201D38B03C01A5241430B8B4277
:1014300001D34B03C01A5241030B8B4201D30B0360
:10144000C01A5241C30A8B4201D3CB02C01A524187
:10145000830A8B4201D38B02C01A5241430A8B424A
:1014600001D34B02C01A5241030A8B4201D30B0233
:10147000C01A5241CDD2C3098B4201D3CB01C01A4D
:10148000524183098B4201D38B01C01A5241430957
:101490008B4201D34B01C01A524103098B4201D345
:1014A0000B01C01A5241C3088B4201D3CB00C01AB2
:1014B000524183088B4201D38B00C01A524143082A
:1014C0008B4201D34B00C01A5241411A00D201464F
:1014D000524110467047FFE701B5002000F0F0F8D8
:1014E00002BDC0460029F7D076E7704703460B439C
:1014F0007FD4002243088B4274D303098B425FD30D
:10150000030A8B4244D3030B8B4228D3030C8B4238
:101510000DD3FF22090212BA030C8B4202D312121E
:10152000090265D0030B8B4219D300E0090AC30BF3
:101530008B4201D3CB03C01A5241830B8B4201D3A0
:101540008B03C01A5241430B8B4201D34B03C01A89
:101550005241030B8B4201D30B03C01A5241C30A01
:101560008B4201D3CB02C01A5241830A8B4201D372
:101570008B02C01A5241430A8B4201D34B02C01A5C
:101580005241030A8B4201D30B02C01A5241CDD201
:10159000C3098B4201D3CB01C01A524183098B424C
:1015A00001D38B01C01A524143098B4201D34B0135
:1015B000C01A524103098B4201D30B01C01A524198
:1015C000C3088B4201D3CB00C01A524183088B421F
:1015D00001D38B00C01A524143088B4201D34B0008
:1015E000C01A5241411A00D201465241104670477A
:1015F0005DE0CA0F00D04942031000D3404253407F
:1016000000229C4603098B422DD3030A8B4212D33E
:10161000FC22890112BA030A8B420CD38901921170
:101620008B4208D3890192118B4204D389013AD0AD
:10163000921100E08909C3098B4201D3CB01C01A82
:10164000524183098B4201D38B01C01A5241430995
:101650008B4201D34B01C01A524103098B4201D383
:101660000B01C01A5241C3088B4201D3CB00C01AF0
:10167000524183088B4201D38B00C01A5241D9D208
:1016800043088B4201D34B00C01A5241411A00D289
:101690000146634652415B10104601D34042002B85
:1016A00000D54942704763465B1000D3404201B504
:1016B000002000F005F802BD0029F8D016E77047B9
:1016C0007047C046F8B557464E464546DE46E0B53B
:1016D0004702460088467F0A360EC40F002E47D0C8
:1016E000FF2E24D0FB008027FF041F4300239946D0
:1016F0009A467F3E43465D025800DB0F6D0A000E9E
:10170000984643D0FF283BD0EB0080250022ED0413
:101710001D437F383618731C41469B464B4661403B
:1017200013430F2B64D875489B00C3589F46002F66
:1017300042D108239946063BFF269A46DAE74146FE
:10174000022A28D0032A00D1CEE0012A00D0ACE042
:10175000114000200022CCB24002D205400AE4072A
:10176000104320433CBC90469946A246AB46F8BD88
:10177000002F15D104239946033B00269A46B9E76A
:10178000FF200222002DC5D00322C3E7002D19D16E
:1017900000200122BEE70124FF220C400020DBE7ED
:1017A000380000F06BFF7626431F9F4000237642EF
:1017B000361A99469A469DE70C239946093BFF261F
:1017C0009A4697E7280000F059FF431F9D40762373
:1017D0005B42181A00229DE780200024C003FF22EC
:1017E000BAE73D005246ABE73D0021005246A7E76D
:1017F0003B0C9C462A04120C2B0C140060466546D8
:101800003F043F0C7C4342435D437B43270C9B18C2
:10181000FF18BA4203D980235B029C466544240426
:101820003A04240C121993015C1EA3413F0C920E42
:101830007D191A43AD0115432B0104D501235E46E2
:101840006A081D40154332007F32002A25DD6B07F0
:1018500004D00F232B40042B00D004352B0103D5DB
:101860003200274B80321D40FE2A94DC0124A8015F
:10187000400AD2B20C406FE78020C003074207D075
:10188000054205D128434002400A4446FF2263E74F
:1018900038434002400AFF225EE70124A31A1B2BB3
:1018A00005DD0C400022002056E75E46CBE72A000B
:1018B0002020DA40C31A9D402B005D1EAB4113432C
:1018C0005A0704D00F221A40042A00D004335A01C8
:1018D00004D5012401220C4000203DE701249B0196
:1018E000580A0C40002237E780200124C003284317
:1018F0004002400A0C40FF222EE7C046B8290000F3
:10190000FFFFFFF770B5002830D0C317C4185C4044
:10191000C50F200000F0B2FE9E231B1A962B0DDC93
:101920009622D21A94402A006402640ADBB264024E
:10193000DB05600AD2071843104370BD992B19DCF0
:101940009922D21A002A29DD94402200144C144016
:10195000510704D00F210A40042A00D00434620148
:1019600013D4A401640ADBB22A00E0E700220023BA
:101970000024DCE705222100121AD140B922D21A34
:101980009440621E94410C43DAE7054B2A001C4048
:101990009F23A4011B1A640ADBB2C8E72200D5E723
:1019A000FFFFFFFBF8B54546DE4657464E460C03A3
:1019B000E0B54E00C90F88460D00610A440F0C4384
:1019C000C70019035800DB0F9B464B0A510F0B430E
:1019D000760D400D1900D200D84500D1AEE0351A81
:1019E000002D00DCF6E000280FD1134300D1DBE02E
:1019F0006B1E002B00D037E1BA1A9742BF41641A20
:101A00007F42E41B0126170024E0C64B9E424DD0C6
:101A100080231B041943382D00DD07E11F2D00DD55
:101A200038E12020431B9A460B00504683409946DC
:101A300013004846EB401843030050468240501EB6
:101A40008241E9401A43BA1A611A9742A441170029
:101A500064420C1B230262D56402650A002D00D18A
:101A6000DFE0280000F00AFE0300083B1F2B00DD2A
:101A7000D2E020223C00D21A9D40D4409F40254312
:101A80009E4200DDC4E09E1B731C1F2B00DDF1E0B5
:101A9000202238002900D21AD840914097402C00CB
:101AA0000143781E8741DC4000260F437B0709D0A5
:101AB0000F233B40042B05D03B1DBB42BF417F425F
:101AC000E4191F0023022CD5964B01369E4200D10B
:101AD0009AE04546944BFF081C4060077605640277
:101AE0000743240B760D00212403230B0C0D8F4A92
:101AF00024051C431440330523435B00ED075B08BA
:101B00002B43380019003CBC90469946A246AB4690
:101B1000F8BD6446044300D111E2040067467B0728
:101B2000C6D145466007FF080743E4087D4B9E4247
:101B300030D024037605240B760DD4E7331A9A4669
:101B4000002B78DD002831D076488642AED0802048
:101B5000000401435346382B00DCE9E00A43511EE0
:101B60008A410021D219BA42BF4109197C421700AB
:101B70000C192302D3D56B4B01369E4200D13AE1BA
:101B80000120694B1C407B0807401F43E0070743C7
:101B900064088BE723003B4300D1CBE18022120392
:101BA00014432403240B9EE72E007FE70800104314
:101BB00000D1B4E0581E002800D0DEE0BA18BA42C6
:101BC0009B4164185B42E418170001262302A6D546
:101BD0000226D5E7002D6ED1701C4005400D01286E
:101BE00000DCF9E0B81A844687428041E51A404299
:101BF0002D1A280200D489E0D71BBA4292411C1B3F
:101C00005242A51AD84629E74546002400276AE72C
:101C1000454CF61A2C4049E73D00283885400027FE
:101C20002EE7380000F02AFD20301DE70A43511E40
:101C30008A41002107E7002B00D0F3E0701C430528
:101C40005B0D012B00DCADE0364B984200D1D1E0BA
:101C5000BA18BA42BF4164187F42E419E707520834
:101C600017436408060021E72E48854200D193E01F
:101C70001D00D0E629001F3EF140202B00D18DE051
:101C80004022D31A9D402F437D1EAF4100240F43B5
:101C9000002644E72B000800203BD8400300202DFD
:101CA00000D17DE04020451BA9400A43511E8A41D6
:101CB00000211A43C7E6002E50D01A4EB04257D02A
:101CC00080266B429946360434434B46382B00DD60
:101CD000D6E01F2B00DD35E12026F51A2600AE40A8
:101CE000B2463E00DE40AC46350056462E436546C1
:101CF000AF407D1EAF41DC403743D71BBA42924113
:101D00000C1B5242A41A0600D846A3E66446674656
:101D10002C4300D0A2E600250026002706E71E007F
:101D2000C4E6C046FF070000FFFF7FFFFFFF0F80F4
:101D30001F2B63DC2020C31A080098409C46834672
:101D400053461000D84003005846184363469A4053
:101D5000531E9A4153460243D94003E726003E43AF
:101D600006D0EB439946002BC7D0944EB042ACD17D
:101D70000C0017000600D84698E6904B9A450BD009
:101D80008246E7E6002800D09EE01800104300D10C
:101D9000E9E01C001700D846884E87E6002572E768
:101DA000002182E723003B43002E00D0ABE0002B54
:101DB00000D1E7E00B00134300D177E6BA18BA422E
:101DC000BF4164187F42E419230200D4F2E07C4B47
:101DD00017001C40060069E620003843002ED1D1D0
:101DE00000285BD11C00144300D1A8E01C001700A0
:101DF000D8465BE606000024002797E650460B0015
:101E00002038C34099465346202B00D195E040230B
:101E100050461B1A99400A43511E8A414B460021E5
:101E20001A439FE6002E30D126003E4367D0DB43A5
:101E30009A46002B1CD0614EB04260D05346382BDE
:101E400000DD96E01F2B00DD9FE02026F31A260020
:101E50009E409C46B34653463E00DE4033005E46FD
:101E60001E4363469F407B1E9F415346DC403743E1
:101E7000BF189742924164185242A418060078E6AF
:101E800027437C1EA741002437E74C4EB04236D092
:101E900080265B4236049A463443CFE7180010434D
:101EA00000D103E6B81A84466745AD41E01A6D4299
:101EB000401B050200D42CE6D71BBA4292411C1BE2
:101EC0005242A41AD846F1E51800104300D163E746
:101ED000F808670707438020E4080003044208D09D
:101EE000DD08054205D1D208590711430F002C0027
:101EF000D8467B0FE4001C43FF00304ED6E50C00B3
:101F000017000600D2E5002B38D00B00134300D198
:101F100042E7F808670707438020E408000304420B
:101F2000E7D0CB080342E4D1D208490711430F00A0
:101F30001C00DEE700270024D5E500216BE7002523
:101F40000027F3E54E462500203EF5404B462E0087
:101F5000202B2DD04025ED1AAC4027437C1EA741F5
:101F600000243743C9E6802400252403134E0027AC
:101F7000DCE527437C1EA741002479E70C0017000D
:101F80000E4E93E50C00170090E556462300203EC8
:101F9000F34099465346202B0ED0402356469B1BB8
:101FA0009C4027437C1EA7414B4600241F435FE70C
:101FB0000024D2E71700B2E50024F2E7FF07000093
:101FC000FFFF7FFFF0B557464546DE464E46E0B57B
:101FD0000C0398464E00230B87B0070092469B46A1
:101FE000760DCD0F002E6BD06D4B9E4235D08024E8
:101FF0005B46420F2404DB0014431C43C300994694
:10200000684BA3469C460023002766440293434640
:102010001C035A00DB0F5046240B520D984600D18A
:1020200076E05F4B9A426DD08023410F1B040B4337
:102030005C49E4008C461C43C300002062444146D6
:10204000B6186940721C0191944607430F2F00D9BE
:10205000B0E0554ABF00D25997465B4603439946C4
:1020600000D087E000239B46023308270293CEE787
:1020700042460192022867D0032800D10EE20128CF
:1020800000D062E10023002400229946019901401A
:10209000CDB2002112030B0D120B1B051343434A53
:1020A000240513401C436400ED0764082C43484694
:1020B000210007B03CBC90469946A246AB46F0BD15
:1020C000034399464FD05B46002B00D189E1584627
:1020D00000F0D4FA03000B3B1C2B00DD7AE11D223B
:1020E000D31A3A0001005C46DA4008398C401300EC
:1020F0008F4023439B46B94600232D4E0027361AB6
:10210000029384E7534623432AD10024022096E712
:102110005346234320D0002C00D157E1200000F08B
:10212000ADFA03000B3B1C2B00DD49E11D21CB1A4E
:1021300051460200D9405346083A944093400C431C
:102140001B4A121A00207AE70125019B144C1D40FE
:102150000023002299469CE70024002201206EE71C
:10216000534603206BE700239B46013304270026D8
:1021700002934CE7032381460C27029347E7802212
:102180000023002512039946054C82E75C464B4626
:1021900002986FE75C464B46019502986AE7C04695
:1021A000FF07000001FCFFFFF8290000FFFF0F8080
:1021B0000DFCFFFF4A464946170C1A0C1B041B0C6A
:1021C00008041900000C41431500884619007D439E
:1021D0007943039589462900150045434D440295EE
:1021E00045462D0CAA46029D5544A94506D98A4666
:1021F000802149028946CA4451460391290C049121
:10220000414609042D04090C88462900250C2404A4
:102210004144240C05912100414388462100794323
:102220008A466843414650448146080C48446F43FF
:10223000824503D98021490289464F44010C8946D1
:1022400039004944029141460F0404993F0C8846E5
:102250000004C01980444146049159460F0C0904FA
:10226000090C884659438A463900514389464146FC
:102270004A435146090C8B467B43D2185A44934239
:1022800003D980235B029B46D94451460904090CBB
:102290008A46414661437C43130C12044B4452442A
:1022A000A1468A463C0041466C434D4351464D444D
:1022B0000F0C7D19A94503D9802149028846444461
:1022C000049F0399B84641448B468345804141426F
:1022D0008846514608042F04000C3F1858460299BE
:1022E00010188946904292414F44BA46524299464C
:1022F0009346C244D144CB448F42BF41C245894139
:1023000099459B41934592417F4249422D0C52424F
:102310000F435B4213437F19FF185B463C19DB0DEB
:10232000059A64021C43430213435D1EAB415A46A7
:10233000C00D034352021343E20156D501205A084F
:1023400003401343E207134364085A4860440028DB
:102350004DDD5A0709D00F221A40042A05D01A1D54
:102360009A429B415B42E4181300E20104D58020AD
:10237000514AC00014406044504A904200DDE3E6F8
:102380000125DB0862071A436402019B9146220B78
:102390004405640D1D407CE680225946120311421B
:1023A00008D0144206D122431203120B4546994627
:1023B000434C6EE65B461A431203120B404C68E630
:1023C00003005446283B9C400023B9E600F056F930
:1023D0002030A6E60300283B9F400023BB469946D9
:1023E0008AE600F04BF9203074E6B446ADE70125EB
:1023F0002A1A382A06DD019B00241D4000230022F2
:10240000994646E61F2A21DC20252000AD1A1E0031
:10241000AB40A840D6405D1EAB4130431843D4408A
:10242000430709D00F230340042B05D00300181DD8
:1024300098429B415B42E418230221D50125019B70
:1024400001241D4000230022994622E61F25210079
:102450006D42281AC1400800202A1DD05F35AA1AF3
:10246000944023435C1EA341072503431D400022E3
:10247000002D09D00F2200241A401800042AD6D1BA
:10248000030065076402220BDB082B4301259946F4
:10249000019B00241D40FCE50024E2E78022012589
:1024A0001203224301991203120B0D409946044C6A
:1024B000EFE5C046FF030000FFFFFFFEFE07000040
:1024C000FF0700004100090E4B1C70B5DBB246024D
:1024D000750AC40F012B14DDE0239B006D07360B3A
:1024E000CB1800210A0D280012051C4D32435B0554
:1024F0002A405B0813435B00E4075B082343190091
:1025000070BD002914D1002D1ED0280000F0B6F8AF
:102510000A281CDC0B232A001B1ADA40030015339F
:102520009D400F4B12031B1A5B05160B5B0DD8E782
:10253000002D06D0320B802636036D071643094B5B
:10254000CFE7084B0026CCE700230026C9E70300AD
:102550002A000B3B9A400025E3E7C046FFFF0F80AF
:1025600089030000FF070000F0B54C00640D0B0369
:10257000621C450F5B0A52052B43C90FC500520D63
:10258000012A28DD3A4AA618FE2E1BDC002E3EDD6D
:1025900080010200501E82416D0F2A43DB0013436D
:1025A0005A0704D00F221A40042A00D00433802294
:1025B000D2041A405AD00136FF2E03D09B015B0A89
:1025C000F4B201E0FF2400235802E405400AC907E1
:1025D00020430843F0BD002C07D01D43F2D08020DB
:1025E000DB0080040343FF26DAE72B4303D00523F7
:1025F000DB08FF2C03D05B025B0AE4B2E4E7002BAC
:1026000032D08020C00303435B025B0ADCE7320068
:10261000173214DB80221E2712041343BF1B1F2F07
:102620000FDC144A944664442A00A5402E00A340BF
:10263000751EAE41FA40334313430026B0E7002431
:10264000D5E702225242961B1A00F240202F09D0F1
:10265000094884466444A3402B435D1EAB410026D9
:1026600013439DE70023F7E70023ADE73400BFE7FE
:1026700080FCFFFF82FCFFFFA2FCFFFF1C21012367
:102680001B04984201D3000C10391B0A984201D355
:10269000000A08391B09984201D30009043902A233
:1026A000105C40187047C04604030202010101019A
:1026B000000000000000000070B50D4E0D4D00241C
:1026C000AD1BAD1005D0A300F35801349847A542C7
:1026D000F9D100F0B3F9084E084D0024AD1BAD1040
:1026E00005D0A300F35801349847A542F9D170BD35
:1026F000482A0000482A0000482A0000502A00000A
:10270000034B10B5002B02D0024800F005F810BDB5
:10271000000000002927000010B50100002300225E
:10272000002000F01FF810BD70B5094B094CE41AE9
:10273000A41009D0084AA518AD00ED182B68013C7B
:102740009847043D002CF9D100F082F970BDC046D5
:102750005C2A0000602A0000FFFFFF3F7047C04670
:102760007047C046F0B54E464546DE465746E0B592
:10277000364D83B00600286898460F009146FFF753
:10278000EDFF334B1C68A4235B00E058002852D0B7
:1027900043681F2B13DC5A1C0192002E28D1019A8A
:1027A00002339B0042601F502868FFF7D9FF0020CA
:1027B00003B03CBC90469946A246AB46F0BD254BC3
:1027C000002B3DD0C820400000E000BF002837D0DB
:1027D000A42200235200A15843600160A05040325F
:1027E000835004328350013301930023002ED6D04E
:1027F0009A00924682444A46882154466250C42236
:102800005200914681444A468739994012688B4666
:102810000A4394464A46614611608422414652006A
:10282000A150022EBBD102005C468D32FF321168EE
:102830000C431460B3E720004D30FF30E050A7E7B1
:102840002868FFF78DFF01204042B1E730040020E7
:10285000382A0000000000009C0200007203000003
:102860005A03000042030000260300000E0300008C
:10287000F6020000DE020000C6020000AE02000008
:10288000860200002C0F00003C0E00002A0F000002
:102890004C0E00002C0F0000680E0000840E00009B
:1028A000840E0000840E0000840E0000840E0000E0
:1028B000840E0000840E0000840E0000840E0000D0
:1028C000840E0000840E0000840E0000840E0000C0
:1028D000840E0000840E0000840E0000840E0000B0
:1028E000840E0000840E0000840E0000840E0000A0
:1028F000840E0000840E0000840E0000840E000090
:10290000840E0000840E0000840E0000840E00007F
:10291000840E0000840E0000840E0000840E00006F
:10292000840E0000840E0000840E0000E60E0000FD
:10293000EA0E0000080F00000C0F00002073706505
:102940006564203D20000000207374617274206172
:102950006E676C65203D200020656E6420616E67A7
:102960006C65203D2000000020706F696E74203D72
:102970002000000048656C6C6F20576F726C6421FA
:1029800000000000202D2D207370656564206D65AA
:1029900061737572656D656E74202D2D00000000E9
:1029A00078203D200000000079203D20000000003C
:1029B0007A203D2000000000F017000040170000C2
:1029C000401700003E170000E2170000E217000069
:1029D000D81700003E170000E2170000D8170000CB
:1029E000E21700003E170000E8170000E81700009B
:1029F000E817000078180000B421000074200000DF
:102A000074200000702000008C2100008C21000048
:102A10007E210000702000008C2100007E2100003B
:102A20008C210000702000009421000094210000FF
:102A3000942100009823000008000020F8B5C0464B
:102A4000F8BC08BC9E46704701270000DD0000006E
:102A5000F8B5C046F8BC08BC9E467047B5000000FB
:102A600040420F000000000000000000F4020020BF
:102A70005C030020C40300200000000000000000F0
:102A80000000000000000000000000000000000046
:102A90000000000000000000000000000000000036
:102AA0000000000000000000000000000000000026
:102AB0000000000000000000000000000000000016
:102AC0000000000000000000000000000000000006
:102AD00000000000000000000000000000000000F6
:102AE00000000000000000000000000000000000E6
:102AF00000000000000000000000000000000000D6
:102B000000000000000000000000000000000000C5
:102B100001000000000000000E33CDAB34126DE662
:102B2000ECDE05000B0000000000000000000000CB
:102B30000000000000000000000000000000000095
:102B40000000000000000000000000000000000085
:102B50000000000000000000000000000000000075
:102B60000000000000000000000000000000000065
:042E9000C016002048
:00000001FF
